:100000000C9478000C942A030C9403030C94A00025
:100010000C94A0000C94A0000C94A0000C94A000E0
:100020000C94A0000C94A0000C94A0000C94A000D0
:100030000C94A0000C94A0000C94A0000C94A000C0
:100040000C94B9020C94A0000C94A0000C94A00095
:100050000C94A0000C94A0000C94A0000C94A000A0
:100060000C94A0000C94A0005E01011F0103030189
:10007000008A02010A010202010064001E47040B0B
:100080000906007C0101060103030100F401060ECC
:100090000102020100C20117010102020101000078
:1000A0000008000201000003040700000000000037
:1000B000000000000000250028002B0000000000C8
:1000C000240027002A000404040404040404020297
:1000D00002020202030303030303010204081020C7
:1000E00040800102040810200102040810207C0452
:1000F00011241FBECFEFD8E0DEBFCDBF11E0A0E0DE
:10010000B1E0E8E9F9E002C005900D92A630B10730
:10011000D9F721E0A6E0B1E001C01D92A63BB207ED
:10012000E1F710E0C8E7D0E004C02197FE010E948B
:10013000C404C737D107C9F70E9451030C94CA04FD
:100140000C940000089590E0FC01E256FF4F3491BA
:10015000FC01E652FF4F2491FC01EA53FF4FE4916A
:10016000EE2309F43BC0332339F1333091F038F4F6
:100170003130A9F0323001F584B58F7D12C03730AF
:1001800091F03830A1F03430B9F4809180008F7D47
:1001900003C0809180008F77809380000DC084B56C
:1001A0008F7784BD09C08091B0008F7703C08091A4
:1001B000B0008F7D8093B000F0E0EE0FFF1FEE5493
:1001C000FF4FA591B4918FB7F894EC91611103C0E2
:1001D00020952E2301C02E2B2C938FBF08951F93A3
:1001E000CF93DF93182FD92F8091B501882319F071
:1001F00060E0C1E002C061E0C0E08091A9010E941E
:10020000A3004091AD015091AE01149F9001159F44
:10021000300D11242230310540F0C901880F991F9B
:10022000880F991F05970197F1F76C2F8091A9010D
:100230000E94A3002091AD013091AE01D29FC00178
:10024000D39F900D11248230910538F0880F991FAB
:10025000880F991F05970197F1F7DF91CF911F91B3
:1002600008953FB7F89480919D0190919E01A091CF
:100270009F01B091A00126B5A89B05C02F3F19F0A2
:100280000196A11DB11D3FBFBA2FA92F982F882716
:10029000820F911DA11DB11DBC01CD0142E0660F71
:1002A000771F881F991F4A95D1F708952F923F9283
:1002B0004F925F926F927F928F929F92AF92BF9276
:1002C000CF92DF92EF92FF920F931F93CF93DF9322
:1002D000CDB7DEB765970FB6F894DEBF0FBECDBFC2
:1002E0000E9431016B017C018091940190919501F4
:1002F0002601481A590A2DEC421620E1520608F44C
:10030000F6C080910E0190910F01A201481B590B7C
:10031000CA0157FF03C0919581959109883C9105C9
:100320000CF0E1C080910C0190910D010196909329
:100330000D0180930C01029709F0D5C098E6692E53
:1003400090E0792E01E010E020900A0130900B013E
:100350003B862A8649E050E0B301CE0101960E9417
:10036000A7048C816B81681708F4682F70E0809176
:100370000E0190910F010E94B0049B014091000179
:1003800050910101649FC001659F900D749F900D75
:10039000112464E670E00E94B0048985811103C0D5
:1003A000A1E0B0E002C0A2E0B0E08D81829FA00198
:1003B000839F500D11245D874C878E81829F100191
:1003C000839F300C11243F862E868F81829FA0014F
:1003D000839F500D1124598B488B8885829F100173
:1003E000839F300C11243B8A2A8AFD01EE0FFF1FE8
:1003F000E25FFE4F812C912C54014A855B85415070
:1004000051095D8B4C8B8C899D89A817B90708F021
:1004100040C0880C991CAA1CBB1C80819181AC0136
:100420002C843D844219530957FF03C051954195CF
:1004300051094617570770F4428153812E843F8437
:100440004219530957FF03C0519541955109461769
:100450005707E0F0288839888219930997FF03C06D
:100460009195819591098617970780F582819381EF
:100470004A895B89841B950B97FF03C091958195F1
:1004800091098617970710F5689480F812963496AC
:10049000BACF4A855B8548305105C0F08092A301F0
:1004A0009092A401A092A501B092A6011C013694DD
:1004B00027943092A2012092A10130930901209348
:1004C0000801109307010093060109C00F5F1F4F39
:1004D00059E0650E711C0730110509F035CF1092F7
:1004E0000D0110920C0110920B0110920A018091E3
:1004F0000A0190910B018334910540F010920B0199
:1005000010920A0110920D0110920C0180910A01C3
:1005100090910B019C012F5F3F4F30930B01209373
:100520000A01880F991FFC01E25FFE4F5182408251
:10053000C0929401D0929501E0929601F0929701B9
:1005400065960FB6F894DEBF0FBECDBFDF91CF9199
:100550001F910F91FF90EF90DF90CF90BF90AF90E1
:100560009F908F907F906F905F904F903F902F90D3
:1005700008951F920F920FB60F9211242F933F935D
:100580008F939F93AF93BF938091990190919A011C
:10059000A0919B01B0919C013091980123E0230F21
:1005A0002D3720F40196A11DB11D05C026E8230FAB
:1005B0000296A11DB11D20939801809399019093FB
:1005C0009A01A0939B01B0939C0180919D01909111
:1005D0009E01A0919F01B091A0010196A11DB11DA6
:1005E00080939D0190939E01A0939F01B093A001E1
:1005F000BF91AF919F918F913F912F910F900FBE1F
:100600000F901F9018951F920F920FB60F92112402
:100610002F933F934F935F936F937F938F939F930A
:10062000AF93BF93EF93FF93E0910401F091050125
:100630000995FF91EF91BF91AF919F918F917F911C
:100640006F915F914F913F912F910F900FBE0F903F
:100650001F9018951F920F920FB60F9211242F938F
:100660003F934F935F936F937F938F939F93AF933A
:10067000BF93EF93FF93E0910201F091030109957D
:10068000FF91EF91BF91AF919F918F917F916F916A
:100690005F914F913F912F910F900FBE0F901F9040
:1006A0001895789484B5826084BD84B5816084BDDA
:1006B00085B5826085BD85B5816085BD80916E0000
:1006C000816080936E001092810080918100826031
:1006D000809381008091810081608093810080916E
:1006E00080008160809380008091B100846080935D
:1006F000B1008091B00081608093B00080917A0059
:10070000846080937A0080917A00826080937A007E
:1007100080917A00816080937A0080917A0080686D
:1007200080937A001092C1008AE090E09093AA0131
:100730008093A901E4EEF0E02491E0EDF0E08491F3
:10074000882399F090E0880F991FFC01E454FF4F33
:10075000A591B491FC01EE54FF4F859194918FB710
:10076000F894EC91E22BEC938FBF85E090E09093AE
:10077000AC018093AB01412C512C3201439446E5EE
:10078000242E41E0342E8091A9019091AA01019676
:1007900009F483C0C091A701D091A801CF3F8FEF8A
:1007A000D807B9F0C23078F4C13011F0E89801C030
:1007B000E998FE01FF27EE0FFF1FEE5FFE4F82EA72
:1007C00090E0918380838FEF9FEF9093A8018093B7
:1007D000A701E12CF12C8091AB019091AC01E816BE
:1007E000F90664F50BE110E0D301C201002E04C04C
:1007F000880F991FAA1FBB1F0A94D2F7857E9A7E85
:10080000A47AB870892B8A2B8B2B29F08091B301A5
:100810009091B40104C08091B1019091B2010E9405
:10082000EF000150110900F78091AF019091B001E4
:100830000E94EF002FEFE21AF20ACDCFCF3F8FEFE9
:10084000D80759F1D093A801C093A7011092A30132
:100850001092A4011092A5011092A6011092A2017B
:100860001092A1018C2FC230C0F4DD27CC0FDD1F08
:10087000CE5FDE4F39822882813041F0809169005D
:100880008C7F816080936900E89A07C0809169003D
:10089000837F846080936900E99A0E9431014B0153
:1008A0005C0188EEC82E83E0D82EE12CF12C0E944A
:1008B0003101DC01CB0188199909AA09BB09883EDD
:1008C0009340A105B10558F091E0C91AD108E1089B
:1008D000F10828EE820E23E0921EA11CB11CC11467
:1008E000D104E104F10419F780E090E0892B09F4C8
:1008F0004ACF0E94000047CF0F931F93CF93DF93FF
:10090000C7EAD1E00FEF1FEF1B830A838AE090E074
:100910009D838C8349E050E068E670E08DEA91E0C9
:100920000E94A704198308838CE390E0909301014F
:10093000809300011092A3011092A4011092A501CE
:100940001092A601DF91CF911F910F910895FB01A5
:10095000DC0102C005900D9241505040D8F7089537
:10096000AA1BBB1B51E107C0AA1FBB1FA617B707D5
:1009700010F0A61BB70B881F991F5A95A9F78095F1
:100980009095BC01CD010895EE0FFF1F0590F491E5
:08099000E02D0994F894FFCF5B
:060998003C00A200A200D9
:107E0000112484B714BE81FFF0D085E080938100F7
:107E100082E08093C00088E18093C10086E0809377
:107E2000C20080E18093C4008EE0C9D0259A86E02C
:107E300020E33CEF91E0309385002093840096BBD3
:107E4000B09BFECF1D9AA8958150A9F7CC24DD24C4
:107E500088248394B5E0AB2EA1E19A2EF3E0BF2EE7
:107E6000A2D0813461F49FD0082FAFD0023811F036
:107E7000013811F484E001C083E08DD089C08234E0
:107E800011F484E103C0853419F485E0A6D080C0E4
:107E9000853579F488D0E82EFF2485D0082F10E0AE
:107EA000102F00270E291F29000F111F8ED06801E7
:107EB0006FC0863521F484E090D080E0DECF843638
:107EC00009F040C070D06FD0082F6DD080E0C81688
:107ED00080E7D80618F4F601B7BEE895C0E0D1E017
:107EE00062D089930C17E1F7F0E0CF16F0E7DF06D8
:107EF00018F0F601B7BEE89568D007B600FCFDCFD4
:107F0000A601A0E0B1E02C9130E011968C91119780
:107F100090E0982F8827822B932B1296FA010C0160
:107F200087BEE89511244E5F5F4FF1E0A038BF0790
:107F300051F7F601A7BEE89507B600FCFDCF97BE46
:107F4000E89526C08437B1F42ED02DD0F82E2BD052
:107F50003CD0F601EF2C8F010F5F1F4F84911BD097
:107F6000EA94F801C1F70894C11CD11CFA94CF0C13
:107F7000D11C0EC0853739F428D08EE10CD085E9AC
:107F80000AD08FE07ACF813511F488E018D01DD067
:107F900080E101D065CF982F8091C00085FFFCCF94
:107FA0009093C60008958091C00087FFFCCF809118
:107FB000C00084FD01C0A8958091C6000895E0E648
:107FC000F0E098E1908380830895EDDF803219F02E
:107FD00088E0F5DFFFCF84E1DECF1F93182FE3DFCA
:107FE0001150E9F7F2DF1F91089580E0E8DFEE27F6
:047FF000FF270994CA
:027FFE00040479
:0400000300007E007B
:00000001FF
